:020000040000FA
:100000003DEC00F02DEC00F00AEC00F0897407EFF5
:1000100000F0F6D7060EF66E010EF76E000EF86EC3
:100020000900F550D8B4120025EC00F0F9D7898208
:10003000010E4EEC00F0899212008A6E899017EC46
:1000400000F0020E4EEC00F012008A6E898017EC70
:1000500000F0020E4EEC00F01200020E4EEC00F02A
:10006000000EF66E010EF76E000EF86E0900F550E8
:10007000D8B412001DEC00F0F9D70F0EC16E926AD1
:10008000896A936A8A6A1200540E616F260E606F45
:100090000000602FFED7612FF9D71200626F44EC89
:0800A00000F0622FFCD71200F2
:0200A800000056
:10010000380C018000004249454E56454E49444F47
:10011000532020202020202020200000555354452B
:100120004420484120494E4752455341444F2055B1
:1001300000004752414349415320202020202020E5
:1001400020202020202000004A554C49414E2053B9
:0E015000414E544F53205341202020200000E8
:020000040030CA
:0100000000FF
:0100010000FE
:0100020019E4
:010003001EDE
:01000500807A
:010006008079
:010008000FE8
:01000900C036
:01000A000FE6
:01000B00E014
:01000C000FE4
:01000D0040B2
:00000001FF
