:020000040000FA
:1000000018EC00F0FDD789820000899212008A6EF8
:10001000899003EC00F0020E29EC00F012008A6EC9
:10002000898003EC00F0020E29EC00F012001200AF
:100030000F0EC16E926A896A936A8A6A1200540E20
:10004000616F260E606F0000602FFED7612FF9D719
:0E0050001200626F1FEC00F0622FFCD712004E
:02005E000000A0
:100060000C0180000000202020204249454E5645CA
:100070004E49444F532020200000205553544544FE
:1000800020484120494E4752455341444F20554E48
:1000900041204D4F4E4544412000204752414349A5
:0200A0004153CA
:020000040030CA
:0100000000FF
:0100010000FE
:0100020019E4
:010003001EDE
:01000500807A
:010006008079
:010008000FE8
:01000900C036
:01000A000FE6
:01000B00E014
:01000C000FE4
:01000D0040B2
:00000001FF
